{
  "_format": "hh-sol-artifact-1",
  "contractName": "SupplyChainTracker",
  "sourceName": "contracts/SupplyChainTracker.sol",
  "abi": [
    {
      "inputs": [],
      "stateMutability": "nonpayable",
      "type": "constructor"
    },
    {
      "anonymous": false,
      "inputs": [
        {
          "indexed": true,
          "internalType": "uint256",
          "name": "productId",
          "type": "uint256"
        },
        {
          "indexed": true,
          "internalType": "address",
          "name": "from",
          "type": "address"
        },
        {
          "indexed": true,
          "internalType": "address",
          "name": "to",
          "type": "address"
        }
      ],
      "name": "OwnershipTransferred",
      "type": "event"
    },
    {
      "anonymous": false,
      "inputs": [
        {
          "indexed": true,
          "internalType": "uint256",
          "name": "productId",
          "type": "uint256"
        },
        {
          "indexed": true,
          "internalType": "address",
          "name": "manufacturer",
          "type": "address"
        }
      ],
      "name": "ProductRegistered",
      "type": "event"
    },
    {
      "anonymous": false,
      "inputs": [
        {
          "indexed": true,
          "internalType": "address",
          "name": "user",
          "type": "address"
        },
        {
          "indexed": false,
          "internalType": "enum SupplyChainTracker.UserRole",
          "name": "role",
          "type": "uint8"
        }
      ],
      "name": "UserRegistered",
      "type": "event"
    },
    {
      "inputs": [
        {
          "internalType": "uint256",
          "name": "_productId",
          "type": "uint256"
        }
      ],
      "name": "getProduct",
      "outputs": [
        {
          "components": [
            {
              "internalType": "string",
              "name": "name",
              "type": "string"
            },
            {
              "internalType": "string",
              "name": "batchNumber",
              "type": "string"
            },
            {
              "internalType": "uint256",
              "name": "manufacturingDate",
              "type": "uint256"
            },
            {
              "internalType": "address",
              "name": "manufacturer",
              "type": "address"
            },
            {
              "internalType": "address",
              "name": "currentOwner",
              "type": "address"
            },
            {
              "internalType": "enum SupplyChainTracker.ProductStatus",
              "name": "status",
              "type": "uint8"
            },
            {
              "internalType": "bool",
              "name": "isAuthentic",
              "type": "bool"
            },
            {
              "internalType": "uint256",
              "name": "price",
              "type": "uint256"
            }
          ],
          "internalType": "struct SupplyChainTracker.Product",
          "name": "",
          "type": "tuple"
        }
      ],
      "stateMutability": "view",
      "type": "function"
    },
    {
      "inputs": [],
      "name": "getTotalProducts",
      "outputs": [
        {
          "internalType": "uint256",
          "name": "",
          "type": "uint256"
        }
      ],
      "stateMutability": "view",
      "type": "function"
    },
    {
      "inputs": [
        {
          "internalType": "address",
          "name": "_user",
          "type": "address"
        }
      ],
      "name": "getUser",
      "outputs": [
        {
          "components": [
            {
              "internalType": "string",
              "name": "name",
              "type": "string"
            },
            {
              "internalType": "enum SupplyChainTracker.UserRole",
              "name": "role",
              "type": "uint8"
            },
            {
              "internalType": "bool",
              "name": "isVerified",
              "type": "bool"
            }
          ],
          "internalType": "struct SupplyChainTracker.User",
          "name": "",
          "type": "tuple"
        }
      ],
      "stateMutability": "view",
      "type": "function"
    },
    {
      "inputs": [
        {
          "internalType": "uint256",
          "name": "_productId",
          "type": "uint256"
        }
      ],
      "name": "markCounterfeit",
      "outputs": [],
      "stateMutability": "nonpayable",
      "type": "function"
    },
    {
      "inputs": [],
      "name": "owner",
      "outputs": [
        {
          "internalType": "address",
          "name": "",
          "type": "address"
        }
      ],
      "stateMutability": "view",
      "type": "function"
    },
    {
      "inputs": [],
      "name": "productCounter",
      "outputs": [
        {
          "internalType": "uint256",
          "name": "",
          "type": "uint256"
        }
      ],
      "stateMutability": "view",
      "type": "function"
    },
    {
      "inputs": [
        {
          "internalType": "uint256",
          "name": "",
          "type": "uint256"
        }
      ],
      "name": "products",
      "outputs": [
        {
          "internalType": "string",
          "name": "name",
          "type": "string"
        },
        {
          "internalType": "string",
          "name": "batchNumber",
          "type": "string"
        },
        {
          "internalType": "uint256",
          "name": "manufacturingDate",
          "type": "uint256"
        },
        {
          "internalType": "address",
          "name": "manufacturer",
          "type": "address"
        },
        {
          "internalType": "address",
          "name": "currentOwner",
          "type": "address"
        },
        {
          "internalType": "enum SupplyChainTracker.ProductStatus",
          "name": "status",
          "type": "uint8"
        },
        {
          "internalType": "bool",
          "name": "isAuthentic",
          "type": "bool"
        },
        {
          "internalType": "uint256",
          "name": "price",
          "type": "uint256"
        }
      ],
      "stateMutability": "view",
      "type": "function"
    },
    {
      "inputs": [
        {
          "internalType": "string",
          "name": "_name",
          "type": "string"
        },
        {
          "internalType": "string",
          "name": "_batchNumber",
          "type": "string"
        },
        {
          "internalType": "uint256",
          "name": "_price",
          "type": "uint256"
        }
      ],
      "name": "registerProduct",
      "outputs": [
        {
          "internalType": "uint256",
          "name": "",
          "type": "uint256"
        }
      ],
      "stateMutability": "nonpayable",
      "type": "function"
    },
    {
      "inputs": [
        {
          "internalType": "string",
          "name": "_name",
          "type": "string"
        },
        {
          "internalType": "enum SupplyChainTracker.UserRole",
          "name": "_role",
          "type": "uint8"
        }
      ],
      "name": "registerUser",
      "outputs": [],
      "stateMutability": "nonpayable",
      "type": "function"
    },
    {
      "inputs": [
        {
          "internalType": "uint256",
          "name": "_productId",
          "type": "uint256"
        },
        {
          "internalType": "address",
          "name": "_to",
          "type": "address"
        }
      ],
      "name": "transferProduct",
      "outputs": [],
      "stateMutability": "nonpayable",
      "type": "function"
    },
    {
      "inputs": [
        {
          "internalType": "uint256",
          "name": "_productId",
          "type": "uint256"
        },
        {
          "internalType": "uint256",
          "name": "_price",
          "type": "uint256"
        }
      ],
      "name": "updatePrice",
      "outputs": [],
      "stateMutability": "nonpayable",
      "type": "function"
    },
    {
      "inputs": [
        {
          "internalType": "address",
          "name": "",
          "type": "address"
        }
      ],
      "name": "userProductCount",
      "outputs": [
        {
          "internalType": "uint256",
          "name": "",
          "type": "uint256"
        }
      ],
      "stateMutability": "view",
      "type": "function"
    },
    {
      "inputs": [
        {
          "internalType": "address",
          "name": "",
          "type": "address"
        }
      ],
      "name": "users",
      "outputs": [
        {
          "internalType": "string",
          "name": "name",
          "type": "string"
        },
        {
          "internalType": "enum SupplyChainTracker.UserRole",
          "name": "role",
          "type": "uint8"
        },
        {
          "internalType": "bool",
          "name": "isVerified",
          "type": "bool"
        }
      ],
      "stateMutability": "view",
      "type": "function"
    },
    {
      "inputs": [
        {
          "internalType": "uint256",
          "name": "_productId",
          "type": "uint256"
        }
      ],
      "name": "verifyProduct",
      "outputs": [
        {
          "internalType": "bool",
          "name": "authentic",
          "type": "bool"
        },
        {
          "internalType": "address",
          "name": "manufacturer",
          "type": "address"
        },
        {
          "internalType": "address",
          "name": "currentOwner",
          "type": "address"
        },
        {
          "internalType": "enum SupplyChainTracker.ProductStatus",
          "name": "status",
          "type": "uint8"
        }
      ],
      "stateMutability": "view",
      "type": "function"
    },
    {
      "inputs": [
        {
          "internalType": "address",
          "name": "_user",
          "type": "address"
        }
      ],
      "name": "verifyUser",
      "outputs": [],
      "stateMutability": "nonpayable",
      "type": "function"
    }
  ],
  "bytecode": "0x608060405234801561001057600080fd5b5033600460006101000a81548173ffffffffffffffffffffffffffffffffffffffff021916908373ffffffffffffffffffffffffffffffffffffffff16021790555060018060003373ffffffffffffffffffffffffffffffffffffffff1673ffffffffffffffffffffffffffffffffffffffff16815260200190815260200160002060010160006101000a81548160ff021916908360048111156100b7576100b661011b565b5b021790555060018060003373ffffffffffffffffffffffffffffffffffffffff1673ffffffffffffffffffffffffffffffffffffffff16815260200190815260200160002060010160016101000a81548160ff02191690831515021790555061014a565b7f4e487b7100000000000000000000000000000000000000000000000000000000600052602160045260246000fd5b6125b6806101596000396000f3fe608060405234801561001057600080fd5b50600436106100f55760003560e01c80636f77926b11610097578063a87430ba11610066578063a87430ba146102a2578063b9db15b4146102d4578063e0ac7f3f14610304578063e43059e514610320576100f5565b80636f77926b146102015780637acc0b201461023157806382367b2d146102685780638da5cb5b14610284576100f5565b80634d813120116100d35780634d81312014610164578063524e84621461018057806353155958146101b3578063570aea8a146101e3576100f5565b80631f16653b146100fa5780633153a15b14610118578063338e12eb14610148575b600080fd5b61010261033c565b60405161010f91906117c5565b60405180910390f35b610132600480360381019061012d919061187b565b610342565b60405161013f91906117c5565b60405180910390f35b610162600480360381019061015d9190611935565b610638565b005b61017e600480360381019061017991906119f3565b610864565b005b61019a60048036038101906101959190611a20565b610951565b6040516101aa9493929190611aee565b60405180910390f35b6101cd60048036038101906101c891906119f3565b610a3e565b6040516101da91906117c5565b60405180910390f35b6101eb610a56565b6040516101f891906117c5565b60405180910390f35b61021b600480360381019061021691906119f3565b610a60565b6040516102289190611c6a565b60405180910390f35b61024b60048036038101906102469190611a20565b610ba1565b60405161025f989796959493929190611cd6565b60405180910390f35b610282600480360381019061027d9190611d62565b610d53565b005b61028c610e67565b6040516102999190611da2565b60405180910390f35b6102bc60048036038101906102b791906119f3565b610e8d565b6040516102cb93929190611dcc565b60405180910390f35b6102ee60048036038101906102e99190611a20565b610f59565b6040516102fb9190611eee565b60405180910390f35b61031e60048036038101906103199190611a20565b611213565b005b61033a60048036038101906103359190611f10565b611327565b005b60035481565b60006001600481111561035857610357611a77565b5b600160003373ffffffffffffffffffffffffffffffffffffffff1673ffffffffffffffffffffffffffffffffffffffff16815260200190815260200160002060010160009054906101000a900460ff1660048111156103ba576103b9611a77565b5b1480156104135750600160003373ffffffffffffffffffffffffffffffffffffffff1673ffffffffffffffffffffffffffffffffffffffff16815260200190815260200160002060010160019054906101000a900460ff165b610452576040517f08c379a000000000000000000000000000000000000000000000000000000000815260040161044990611f9c565b60405180910390fd5b6003600081548092919061046590611feb565b91905055506000600354905060008060008381526020019081526020016000209050878782600001918261049a929190612279565b5085858260010191826104ae929190612279565b50428160020181905550338160030160006101000a81548173ffffffffffffffffffffffffffffffffffffffff021916908373ffffffffffffffffffffffffffffffffffffffff160217905550338160040160006101000a81548173ffffffffffffffffffffffffffffffffffffffff021916908373ffffffffffffffffffffffffffffffffffffffff16021790555060008160040160146101000a81548160ff0219169083600481111561056657610565611a77565b5b021790555060018160040160156101000a81548160ff021916908315150217905550838160050181905550600260003373ffffffffffffffffffffffffffffffffffffffff1673ffffffffffffffffffffffffffffffffffffffff16815260200190815260200160002060008154809291906105e190611feb565b91905055503373ffffffffffffffffffffffffffffffffffffffff16827f73e014c0a076665d9511a27e878fadccb6d7171f5754ba1167a670023760b01560405160405180910390a3819250505095945050505050565b6000600481111561064c5761064b611a77565b5b600160003373ffffffffffffffffffffffffffffffffffffffff1673ffffffffffffffffffffffffffffffffffffffff16815260200190815260200160002060010160009054906101000a900460ff1660048111156106ae576106ad611a77565b5b146106ee576040517f08c379a00000000000000000000000000000000000000000000000000000000081526004016106e590612395565b60405180910390fd5b6000600481111561070257610701611a77565b5b81600481111561071557610714611a77565b5b03610755576040517f08c379a000000000000000000000000000000000000000000000000000000000815260040161074c90612401565b60405180910390fd5b8282600160003373ffffffffffffffffffffffffffffffffffffffff1673ffffffffffffffffffffffffffffffffffffffff16815260200190815260200160002060000191826107a6929190612279565b5080600160003373ffffffffffffffffffffffffffffffffffffffff1673ffffffffffffffffffffffffffffffffffffffff16815260200190815260200160002060010160006101000a81548160ff0219169083600481111561080c5761080b611a77565b5b02179055503373ffffffffffffffffffffffffffffffffffffffff167f8e18574f8a7333e6a87112742a55853a643e2f0550f4e1a3a2c3f1bb2994441d826040516108579190612421565b60405180910390a2505050565b600460009054906101000a900473ffffffffffffffffffffffffffffffffffffffff1673ffffffffffffffffffffffffffffffffffffffff163373ffffffffffffffffffffffffffffffffffffffff16146108f4576040517f08c379a00000000000000000000000000000000000000000000000000000000081526004016108eb90612488565b60405180910390fd5b60018060008373ffffffffffffffffffffffffffffffffffffffff1673ffffffffffffffffffffffffffffffffffffffff16815260200190815260200160002060010160016101000a81548160ff02191690831515021790555050565b60008060008084600354811115801561096a5750600081115b6109a9576040517f08c379a00000000000000000000000000000000000000000000000000000000081526004016109a0906124f4565b60405180910390fd5b600080600088815260200190815260200160002090508060040160159054906101000a900460ff168160030160009054906101000a900473ffffffffffffffffffffffffffffffffffffffff168260040160009054906101000a900473ffffffffffffffffffffffffffffffffffffffff168360040160149054906101000a900460ff16955095509550955050509193509193565b60026020528060005260406000206000915090505481565b6000600354905090565b610a686116f2565b600160008373ffffffffffffffffffffffffffffffffffffffff1673ffffffffffffffffffffffffffffffffffffffff168152602001908152602001600020604051806060016040529081600082018054610ac29061209c565b80601f0160208091040260200160405190810160405280929190818152602001828054610aee9061209c565b8015610b3b5780601f10610b1057610100808354040283529160200191610b3b565b820191906000526020600020905b815481529060010190602001808311610b1e57829003601f168201915b505050505081526020016001820160009054906101000a900460ff166004811115610b6957610b68611a77565b5b6004811115610b7b57610b7a611a77565b5b81526020016001820160019054906101000a900460ff1615151515815250509050919050565b6000602052806000526040600020600091509050806000018054610bc49061209c565b80601f0160208091040260200160405190810160405280929190818152602001828054610bf09061209c565b8015610c3d5780601f10610c1257610100808354040283529160200191610c3d565b820191906000526020600020905b815481529060010190602001808311610c2057829003601f168201915b505050505090806001018054610c529061209c565b80601f0160208091040260200160405190810160405280929190818152602001828054610c7e9061209c565b8015610ccb5780601f10610ca057610100808354040283529160200191610ccb565b820191906000526020600020905b815481529060010190602001808311610cae57829003601f168201915b5050505050908060020154908060030160009054906101000a900473ffffffffffffffffffffffffffffffffffffffff16908060040160009054906101000a900473ffffffffffffffffffffffffffffffffffffffff16908060040160149054906101000a900460ff16908060040160159054906101000a900460ff16908060050154905088565b816003548111158015610d665750600081115b610da5576040517f08c379a0000000000000000000000000000000000000000000000000000000008152600401610d9c906124f4565b60405180910390fd5b3373ffffffffffffffffffffffffffffffffffffffff1660008085815260200190815260200160002060040160009054906101000a900473ffffffffffffffffffffffffffffffffffffffff1673ffffffffffffffffffffffffffffffffffffffff1614610e48576040517f08c379a0000000000000000000000000000000000000000000000000000000008152600401610e3f90612488565b60405180910390fd5b8160008085815260200190815260200160002060050181905550505050565b600460009054906101000a900473ffffffffffffffffffffffffffffffffffffffff1681565b6001602052806000526040600020600091509050806000018054610eb09061209c565b80601f0160208091040260200160405190810160405280929190818152602001828054610edc9061209c565b8015610f295780601f10610efe57610100808354040283529160200191610f29565b820191906000526020600020905b815481529060010190602001808311610f0c57829003601f168201915b5050505050908060010160009054906101000a900460ff16908060010160019054906101000a900460ff16905083565b610f61611727565b816003548111158015610f745750600081115b610fb3576040517f08c379a0000000000000000000000000000000000000000000000000000000008152600401610faa906124f4565b60405180910390fd5b60008084815260200190815260200160002060405180610100016040529081600082018054610fe19061209c565b80601f016020809104026020016040519081016040528092919081815260200182805461100d9061209c565b801561105a5780601f1061102f5761010080835404028352916020019161105a565b820191906000526020600020905b81548152906001019060200180831161103d57829003601f168201915b505050505081526020016001820180546110739061209c565b80601f016020809104026020016040519081016040528092919081815260200182805461109f9061209c565b80156110ec5780601f106110c1576101008083540402835291602001916110ec565b820191906000526020600020905b8154815290600101906020018083116110cf57829003601f168201915b50505050508152602001600282015481526020016003820160009054906101000a900473ffffffffffffffffffffffffffffffffffffffff1673ffffffffffffffffffffffffffffffffffffffff1673ffffffffffffffffffffffffffffffffffffffff1681526020016004820160009054906101000a900473ffffffffffffffffffffffffffffffffffffffff1673ffffffffffffffffffffffffffffffffffffffff1673ffffffffffffffffffffffffffffffffffffffff1681526020016004820160149054906101000a900460ff1660048111156111d0576111cf611a77565b5b60048111156111e2576111e1611a77565b5b81526020016004820160159054906101000a900460ff16151515158152602001600582015481525050915050919050565b600460009054906101000a900473ffffffffffffffffffffffffffffffffffffffff1673ffffffffffffffffffffffffffffffffffffffff163373ffffffffffffffffffffffffffffffffffffffff16146112a3576040517f08c379a000000000000000000000000000000000000000000000000000000000815260040161129a90612488565b60405180910390fd5b8060035481111580156112b65750600081115b6112f5576040517f08c379a00000000000000000000000000000000000000000000000000000000081526004016112ec906124f4565b60405180910390fd5b600080600084815260200190815260200160002060040160156101000a81548160ff0219169083151502179055505050565b81600354811115801561133a5750600081115b611379576040517f08c379a0000000000000000000000000000000000000000000000000000000008152600401611370906124f4565b60405180910390fd5b3373ffffffffffffffffffffffffffffffffffffffff1660008085815260200190815260200160002060040160009054906101000a900473ffffffffffffffffffffffffffffffffffffffff1673ffffffffffffffffffffffffffffffffffffffff161461141c576040517f08c379a000000000000000000000000000000000000000000000000000000000815260040161141390612488565b60405180910390fd5b600160008373ffffffffffffffffffffffffffffffffffffffff1673ffffffffffffffffffffffffffffffffffffffff16815260200190815260200160002060010160019054906101000a900460ff166114ab576040517f08c379a00000000000000000000000000000000000000000000000000000000081526004016114a290612560565b60405180910390fd5b8160008085815260200190815260200160002060040160006101000a81548173ffffffffffffffffffffffffffffffffffffffff021916908373ffffffffffffffffffffffffffffffffffffffff160217905550611557600160008473ffffffffffffffffffffffffffffffffffffffff1673ffffffffffffffffffffffffffffffffffffffff16815260200190815260200160002060010160009054906101000a900460ff16611648565b60008085815260200190815260200160002060040160146101000a81548160ff0219169083600481111561158e5761158d611a77565b5b0217905550600260008373ffffffffffffffffffffffffffffffffffffffff1673ffffffffffffffffffffffffffffffffffffffff16815260200190815260200160002060008154809291906115e390611feb565b91905055508173ffffffffffffffffffffffffffffffffffffffff163373ffffffffffffffffffffffffffffffffffffffff16847f16b85f49bf01212961345d3016c9a531894accf62eb7680f2045d79185cc0ec060405160405180910390a4505050565b60006002600481111561165e5761165d611a77565b5b82600481111561167157611670611a77565b5b0361167f57600290506116ed565b6003600481111561169357611692611a77565b5b8260048111156116a6576116a5611a77565b5b036116b457600390506116ed565b6004808111156116c7576116c6611a77565b5b8260048111156116da576116d9611a77565b5b036116e857600490506116ed565b600390505b919050565b6040518060600160405280606081526020016000600481111561171857611717611a77565b5b81526020016000151581525090565b604051806101000160405280606081526020016060815260200160008152602001600073ffffffffffffffffffffffffffffffffffffffff168152602001600073ffffffffffffffffffffffffffffffffffffffff1681526020016000600481111561179657611795611a77565b5b8152602001600015158152602001600081525090565b6000819050919050565b6117bf816117ac565b82525050565b60006020820190506117da60008301846117b6565b92915050565b600080fd5b600080fd5b600080fd5b600080fd5b600080fd5b60008083601f84011261180f5761180e6117ea565b5b8235905067ffffffffffffffff81111561182c5761182b6117ef565b5b602083019150836001820283011115611848576118476117f4565b5b9250929050565b611858816117ac565b811461186357600080fd5b50565b6000813590506118758161184f565b92915050565b600080600080600060608688031215611897576118966117e0565b5b600086013567ffffffffffffffff8111156118b5576118b46117e5565b5b6118c1888289016117f9565b9550955050602086013567ffffffffffffffff8111156118e4576118e36117e5565b5b6118f0888289016117f9565b9350935050604061190388828901611866565b9150509295509295909350565b6005811061191d57600080fd5b50565b60008135905061192f81611910565b92915050565b60008060006040848603121561194e5761194d6117e0565b5b600084013567ffffffffffffffff81111561196c5761196b6117e5565b5b611978868287016117f9565b9350935050602061198b86828701611920565b9150509250925092565b600073ffffffffffffffffffffffffffffffffffffffff82169050919050565b60006119c082611995565b9050919050565b6119d0816119b5565b81146119db57600080fd5b50565b6000813590506119ed816119c7565b92915050565b600060208284031215611a0957611a086117e0565b5b6000611a17848285016119de565b91505092915050565b600060208284031215611a3657611a356117e0565b5b6000611a4484828501611866565b91505092915050565b60008115159050919050565b611a6281611a4d565b82525050565b611a71816119b5565b82525050565b7f4e487b7100000000000000000000000000000000000000000000000000000000600052602160045260246000fd5b60058110611ab757611ab6611a77565b5b50565b6000819050611ac882611aa6565b919050565b6000611ad882611aba565b9050919050565b611ae881611acd565b82525050565b6000608082019050611b036000830187611a59565b611b106020830186611a68565b611b1d6040830185611a68565b611b2a6060830184611adf565b95945050505050565b600081519050919050565b600082825260208201905092915050565b60005b83811015611b6d578082015181840152602081019050611b52565b60008484015250505050565b6000601f19601f8301169050919050565b6000611b9582611b33565b611b9f8185611b3e565b9350611baf818560208601611b4f565b611bb881611b79565b840191505092915050565b60058110611bd457611bd3611a77565b5b50565b6000819050611be582611bc3565b919050565b6000611bf582611bd7565b9050919050565b611c0581611bea565b82525050565b611c1481611a4d565b82525050565b60006060830160008301518482036000860152611c378282611b8a565b9150506020830151611c4c6020860182611bfc565b506040830151611c5f6040860182611c0b565b508091505092915050565b60006020820190508181036000830152611c848184611c1a565b905092915050565b600082825260208201905092915050565b6000611ca882611b33565b611cb28185611c8c565b9350611cc2818560208601611b4f565b611ccb81611b79565b840191505092915050565b6000610100820190508181036000830152611cf1818b611c9d565b90508181036020830152611d05818a611c9d565b9050611d1460408301896117b6565b611d216060830188611a68565b611d2e6080830187611a68565b611d3b60a0830186611adf565b611d4860c0830185611a59565b611d5560e08301846117b6565b9998505050505050505050565b60008060408385031215611d7957611d786117e0565b5b6000611d8785828601611866565b9250506020611d9885828601611866565b9150509250929050565b6000602082019050611db76000830184611a68565b92915050565b611dc681611bea565b82525050565b60006060820190508181036000830152611de68186611c9d565b9050611df56020830185611dbd565b611e026040830184611a59565b949350505050565b611e13816117ac565b82525050565b611e22816119b5565b82525050565b611e3181611acd565b82525050565b6000610100830160008301518482036000860152611e558282611b8a565b91505060208301518482036020860152611e6f8282611b8a565b9150506040830151611e846040860182611e0a565b506060830151611e976060860182611e19565b506080830151611eaa6080860182611e19565b5060a0830151611ebd60a0860182611e28565b5060c0830151611ed060c0860182611c0b565b5060e0830151611ee360e0860182611e0a565b508091505092915050565b60006020820190508181036000830152611f088184611e37565b905092915050565b60008060408385031215611f2757611f266117e0565b5b6000611f3585828601611866565b9250506020611f46858286016119de565b9150509250929050565b7f4e6f74207665726966696564206d616e75666163747572657200000000000000600082015250565b6000611f86601983611c8c565b9150611f9182611f50565b602082019050919050565b60006020820190508181036000830152611fb581611f79565b9050919050565b7f4e487b7100000000000000000000000000000000000000000000000000000000600052601160045260246000fd5b6000611ff6826117ac565b91507fffffffffffffffffffffffffffffffffffffffffffffffffffffffffffffffff820361202857612027611fbc565b5b600182019050919050565b600082905092915050565b7f4e487b7100000000000000000000000000000000000000000000000000000000600052604160045260246000fd5b7f4e487b7100000000000000000000000000000000000000000000000000000000600052602260045260246000fd5b600060028204905060018216806120b457607f821691505b6020821081036120c7576120c661206d565b5b50919050565b60008190508160005260206000209050919050565b60006020601f8301049050919050565b600082821b905092915050565b60006008830261212f7fffffffffffffffffffffffffffffffffffffffffffffffffffffffffffffffff826120f2565b61213986836120f2565b95508019841693508086168417925050509392505050565b6000819050919050565b600061217661217161216c846117ac565b612151565b6117ac565b9050919050565b6000819050919050565b6121908361215b565b6121a461219c8261217d565b8484546120ff565b825550505050565b600090565b6121b96121ac565b6121c4818484612187565b505050565b5b818110156121e8576121dd6000826121b1565b6001810190506121ca565b5050565b601f82111561222d576121fe816120cd565b612207846120e2565b81016020851015612216578190505b61222a612222856120e2565b8301826121c9565b50505b505050565b600082821c905092915050565b600061225060001984600802612232565b1980831691505092915050565b6000612269838361223f565b9150826002028217905092915050565b6122838383612033565b67ffffffffffffffff81111561229c5761229b61203e565b5b6122a6825461209c565b6122b18282856121ec565b6000601f8311600181146122e057600084156122ce578287013590505b6122d8858261225d565b865550612340565b601f1984166122ee866120cd565b60005b82811015612316578489013582556001820191506020850194506020810190506122f1565b86831015612333578489013561232f601f89168261223f565b8355505b6001600288020188555050505b50505050505050565b7f416c726561647920726567697374657265640000000000000000000000000000600082015250565b600061237f601283611c8c565b915061238a82612349565b602082019050919050565b600060208201905081810360008301526123ae81612372565b9050919050565b7f496e76616c696420726f6c650000000000000000000000000000000000000000600082015250565b60006123eb600c83611c8c565b91506123f6826123b5565b602082019050919050565b6000602082019050818103600083015261241a816123de565b9050919050565b60006020820190506124366000830184611dbd565b92915050565b7f4e6f74206f776e65720000000000000000000000000000000000000000000000600082015250565b6000612472600983611c8c565b915061247d8261243c565b602082019050919050565b600060208201905081810360008301526124a181612465565b9050919050565b7f496e76616c69642070726f647563740000000000000000000000000000000000600082015250565b60006124de600f83611c8c565b91506124e9826124a8565b602082019050919050565b6000602082019050818103600083015261250d816124d1565b9050919050565b7f526563697069656e74206e6f7420766572696669656400000000000000000000600082015250565b600061254a601683611c8c565b915061255582612514565b602082019050919050565b600060208201905081810360008301526125798161253d565b905091905056fea26469706673582212209e3dff70ee33aeb0a67cbd33c47c74a79fbf9ac5e3d724576d32962a8a9220a864736f6c634300081c0033",
  "linkReferences": {},
  "deployedLinkReferences": {}
}